:030000000201A753
:0C01A700787FE4F6D8FD75810B0201EEB4
:05029E0012023380FB99
:0402A300E4F58022DC
:1002790000EF1FAC0670011E4C600A7D027CC7DCD2
:05028900FEDDFC80EC2D
:01028E00224D
:0E028F00AD071FED60087E021EEE60F480FADF
:01029D00223E
:10000300E4F50B20B1327F14FE12027930B1FD7F8B
:10001300147E00120279E4F508F509B2A57F017E8A
:10002300001202790509E50970020508C39464E525
:1000330008940040E6750B0120B0337F147E001254
:10004300027930B0FD7F147E00120279E4F508F5E1
:1000530009B2A57F027E001202790509E509700243
:100063000508C39432E508940040E6750B0220B2FC
:10007300337F147E0012027930B2FD7F147E0012AA
:100083000279E4F508F509B2A57F047E001202792E
:100093000509E50970020508C39419E508940040B1
:1000A300E6750B0320B3337F147E0012027930B35D
:1000B300FD7F147E00120279E4F508F509B2A57FED
:1000C300057E001202790509E50970020508C3944B
:0C00D30014E508940040E6750B04AF0B28
:0100DF0022FE
:1000E000EE705BEF14B4080050549000F875F00304
:1000F000A4C58325F0C583730201380201340201CF
:100100002C02012802012002011C0201140201102C
:10011000C2A28002D2A2C2A3C2A48022C2A2800232
:10012000D2A2D2A3C2A48016C2A28002D2A2C2A32B
:10013000D2A4800AC2A28002D2A2D2A3D2A4EC701E
:1001400065EDB40A00505F90014EF8282873020153
:100150009902016C02017102017602017B020180A9
:1001600002018502018A02018F02019475800680D6
:100170002B75805B802675804F8021758066801C82
:1001800075806D801775807D8012758007800D7574
:10019000807F800875806F800375803F7F017E00BF
:0701A0001202791202A322F2
:0302A700010A0049
:10023300120003BF0102050ABF0202150AE50A758F
:10024300F00A84FD7C007F077E001200E0E50A755A
:0F025300F00A84E5F0FD7C007F087E000200E0E9
:100262005389F0438901758A18758CFCC28DD28C32
:07027200D2A9D2AFC2B922EC
:1001B30002029EE493A3F8E493A34003F68001F2C2
:1001C30008DFF48029E493A3F85407240CC8C3334D
:1001D300C4540F4420C8834004F456800146F6DF1C
:1001E300E4800B01020408102040809002A7E47E03
:1001F300019360BCA3FF543F30E509541FFEE49311
:10020300A360010ECF54C025E060A840B8E493A3D7
:10021300FAE493A3F8E493A3C8C582C8CAC583CA02
:10022300F0A3C8C582C8CAC583CADFE9DEE780BEBA
:0102AA000053
:00000001FF
