:03000000020126D4
:0C012600787FE4F6D8FD75810B02000321
:06010C00F5A07FF47E0166
:10011200EF4E600F7D027CEFDCFEDDFCEF1F70F026
:030122001E80ED4F
:0101250022B7
:10000300E4F5A07FE87E0312011230B1030201067A
:070013007F147E00120112B0
:10001A00E4F508F509F508F509AF09A80774010818
:10002A008002C333D8FCF4F5A07F467E0012011289
:10003A000509E50970020508C39408E50864809477
:03004A008040D61D
:10004D00E4F508F509F50A750B04F508750903F5CE
:10005D000A750B04C3E50B9408E50A64809480507F
:10006D00047F0180027F00EF6032AF0BA80774019F
:10007D00088002C333D8FCFFAE09A80674010880BE
:10008D0002C333D8FC4FF412010C050BE50B7002C3
:0C009D00050AE509150970BC150880B8BB
:1000A900E4F508F509F50A750B04F508F509F50AEB
:1000B900750B07C3E50B9404E50A6480948040043A
:1000C9007F0180027F00EF700302000DAF0BA807CC
:1000D9007401088002C333D8FCFFAE09A806740175
:1000E900088002C333D8FC4F12010CE50B150B70C5
:0D00F90002150A0509E50970BA050880B670
:0601060075A0FF02000DD0
:00000001FF
