:0300000002017387
:0C017300787FE4F6D8FD7581090200B722
:1000B7007D027C007F017E001200037F017E00121B
:1000C700015A12017FE4FDFC7F02FE1200037F014B
:1000D7007E0012015A12017FE4FDFC7F03FE12002D
:1000E700037F017E0012015A12017F7D067C007F8B
:1000F700047E001200037F017E0012015A12017F65
:100107007D017C007F057E001200037F017E0012C7
:10011700015A12017FE4FDFC7F06FE1200037F01F6
:100127007E0012015A12017FE4FDFC7F07FE1200D8
:10013700037F017E0012015A12017F7D047C007F3C
:10014700087E001200037F017E0012015A12017F10
:030157000200B7EC
:0A015A00EF1FAC0670011E4C600E92
:0C0164007508027509EFD509FDD508FAF1
:0301700080E82202
:10000300EE705BEF14B40800505490001B75F003BE
:10001300A4C58325F0C5837302005B020057020069
:100023004F02004B02004302003F0200370200333D
:10003300C2A28002D2A2C2A3C2A48022C2A2800210
:10004300D2A2D2A3C2A48016C2A28002D2A2C2A309
:10005300D2A4800AC2A28002D2A2D2A3D2A4EC70FC
:1000630052EDB40A00504C900071F8282873020036
:10007300B302008F02009302009702009B02009FCD
:100083000200A30200A70200AB0200AF75800622A4
:1000930075805B2275804F227580662275806D2284
:1000A30075807D227580072275807F2275806F227F
:0400B30075803F22F3
:04017F00E4F5802201
:00000001FF
