:030000000201807A
:0C018000787FE4F6D8FD7581120201C7FB
:0400030002080000EF
:10020C001202AA750D0512000E8F0CE50C6401701C
:10021C0024050A530A03E50A7004F50D8017E50A54
:10022C00B40105750D28800DE50AB40205750D4560
:10023C008003750D64E50AFD7C007F057E001200CD
:03024C00CC80C3A0
:03000B0002024F9F
:06024F00C0E0C0F0C0D0C9
:10025500758AAE758CFB050BE50B75F0648485F02E
:0E0265000BE50BC3950D5004D2908002C290A1
:07027300D0D0D0F0D0E03242
:0A027A00EF1FAC0670011E4C600E71
:0C028400750F027510EFD510FDD50FFAB4
:0302900080E822E1
:10000E00E4F50E20B1137F14FE12027A30B1FD7F9B
:10001E00147E0012027A750E0120B0337F147E001A
:10002E0012027A30B0FD7F147E0012027AE4F511CE
:10003E00F512B2A57F027E0012027A0512E5127049
:10004E00020511C39432E511940040E6750E0220AC
:10005E00B2337F147E0012027A30B2FD7F147E001E
:10006E0012027AE4F511F512B2A57F047E00120297
:10007E007A0512E51270020511C39419E511940068
:10008E0040E6750E0320B3337F147E0012027A30E1
:10009E00B3FD7F147E0012027AE4F511F512B2A5BB
:1000AE007F057E0012027A0512E51270020511C359
:0D00BE009414E511940040E6750E04AF0E99
:0100CB002212
:100293005389F0438901758A18758CFCC28DD28C01
:0702A300D2A9D2AFC2B922BB
:1002AA005389F0758AAE758CFBC28DD28CD2A9D2D5
:0402BA00AFC2B922F4
:1000CC00EE705BEF14B4080050549000E475F0032C
:1000DC00A4C58325F0C5837302012402012002010B
:1000EC001802011402010C0201080201000200FCBA
:1000FC00C2A28002D2A2C2A3C2A48022C2A2800247
:10010C00D2A2D2A3C2A48016C2A28002D2A2C2A33F
:10011C00D2A4800AC2A28002D2A2D2A3D2A4EC7032
:10012C0052EDB40A00504C90013AF82828730201A1
:10013C007C02015802015C02016002016402016848
:10014C0002016C02017002017402017875800622B2
:10015C0075805B2275804F227580662275806D22BA
:10016C0075807D227580072275807F2275806F22B5
:04017C0075803F2229
:10018C0002020CE493A3F8E493A34003F68001F27B
:10019C0008DFF48029E493A3F85407240CC8C33374
:1001AC00C4540F4420C8834004F456800146F6DF43
:1001BC00E4800B0102040810204080900003E47ED0
:1001CC00019360BCA3FF543F30E509541FFEE49338
:1001DC00A360010ECF54C025E060A840B8E493A3FF
:1001EC00FAE493A3F8E493A3C8C582C8CAC583CA2A
:1001FC00F0A3C8C582C8CAC583CADFE9DEE780BEE2
:0100070000F8
:00000001FF
