:030000000201C238
:0C01C200787FE4F6D8FD75810D0201ADD8
:1001AD001200038F0DE50D60F7FD7C007F017E00D1
:0501BD001200E080EBE0
:10000300E4F50820B1327F14FE12019430B1FD7F74
:10001300147E00120194E4F50BF50CB2A57F017E6A
:1000230000120194050CE50C7002050BC39464E502
:100033000B940040E675080120B0337F147E001254
:10004300019430B0FD7F147E00120194E4F50BF5AA
:100053000CB2A57F027E00120194050CE50C700220
:10006300050BC39432E50B940040E675080220B2F9
:10007300337F147E0012019430B2FD7F147E001290
:100083000194E4F50BF50CB2A57F047E00120194F4
:10009300050CE50C7002050BC39419E50B940040A5
:1000A300E675080320B3337F147E0012019430B346
:1000B300FD7F147E00120194E4F50BF50CB2A57FCD
:1000C300057E00120194050CE50C7002050BC39428
:0C00D30014E50B940040E6750804AF082B
:0100DF0022FE
:0A019400EF1FAC0670011E4C600E58
:0C019E00750902750AEFD50AFDD509FAB3
:0301AA0080E822C8
:1000E000EE705BEF14B4080050549000F875F00304
:1000F000A4C58325F0C583730201380201340201CF
:100100002C02012802012002011C0201140201102C
:10011000C2A28002D2A2C2A3C2A48022C2A2800232
:10012000D2A2D2A3C2A48016C2A28002D2A2C2A32B
:10013000D2A4800AC2A28002D2A2D2A3D2A4EC701E
:1001400052EDB40A00504C90014EF8282873020179
:100150009002016C02017002017402017802017CBC
:1001600002018002018402018802018C758006224E
:1001700075805B2275804F227580662275806D22A6
:1001800075807D227580072275807F2275806F22A1
:0401900075803F2215
:00000001FF
