:03000000020241B8
:0C024100787FE4F6D8FD7581240202618C
:0802610012021E1201EE80FBE7
:06023200C2A58F80D2A7D7
:080238007F027EEFDEFEDFFC19
:01024000229B
:0A024D00C2A6120232C2A702023854
:10019800CFCDCFCECCCE1200427C007D0A120042D9
:0401A800ED2430FF13
:0A01AC00D2A6120232C2A7020238E6
:10020800AE07BE0104ED148006BE0209ED243F448A
:0602180080FF12024D22DE
:10021E007F3812024D7F0C12024D7F0612024D7F67
:04022E000102024D7A
:0A025700AC03120208AF040201AC70
:060175008B228A2389247D
:10017B00120208E4FDAB22AA23A9248D8275830009
:0C018B00120003FF60061201AC0D80E9B9
:010197002245
:0C0142007F0AEA24FFFDE434FFFC7E008D
:08014E008E1E8F1F8C208D21F5
:100156007F017E00E4FBEBC39521E5206480F87403
:0E0166008098500AAC1EAD1F1200300B80E8CE
:010174002268
:0401B6008A118B120D
:1001BA00120208AA13EAD39400400D120142AC11AC
:0801CA00AD121201981A80ED3C
:0101D200220A
:10009700120208C3EA64809480400B7F2B1201ACE4
:1000A7008A0D8B0E800E7F2D1201ACC3E49BF50EDB
:1000B700E49AF50DAA0CEAD39400400D120142AC64
:0900C7000DAD0E1201981A80ED36
:0100D000220D
:0400D1008A168B17E9
:1000D500120208AA18EAD3940040297F101201449D
:1000E500AC16AD17CFCDCFCECCCE120042EF540F0C
:1000F500FEC3940AEE5004243080022437FF120117
:04010500AC1A80D1DF
:0101090022D3
:04010A008A1B8B1CA5
:10010E00120208AA1DEAD394004028EA24FFFDE457
:10011E0034FFFC7F027E0012014EAC1BAD1CCFCD16
:10012E00CFCECCCE120042EF54012430FF1201ACE0
:03013E001A80D252
:01014100229B
:1001D30048656C6C6F2C20576F726C64210049204A
:0B01E3004C4F564520415343212100A2
:1001EE007BFF7A0179D37D017F011201757BFF7A46
:0A01FE000179E17D017F0202017525
:10000300BB010CE58229F582E5833AF583E02250B2
:1000130006E92582F8E622BBFE06E92582F8E222FC
:0D002300E58229F582E5833AF583E4932216
:10003000EF8DF0A4A8F0CF8CF0A428CE8DF0A42EE4
:02004000FE229E
:10004200BC000BBE0029EF8DF084FFADF022E4CCA2
:10005200F875F008EF2FFFEE33FEEC33FCEE9DEC6B
:10006200984005FCEE9DFE0FD5F0E9E4CEFD22EDB1
:10007200F8F5F0EE8420D21CFEADF075F008EF2FFB
:10008200FFED33FD4007985006D5F0F222C398FDEC
:050092000FD5F0EA2289
:00000001FF
