:030000000203EE0A
:0C03EE00787FE4F6D8FD75812B020146F3
:10014600E4F508F509F50AF50B1203CB120334E5BD
:100156000B450A704E20B12B7F14FE12039C20B172
:100166002230B1FDE509450870047F0180027F0059
:100176007508008F09E509450870051203348003E8
:1001860012034E20B0C97F147E0012039C20B0BF1C
:1001960030B0FDE509450870B6F50A750B01120386
:1001A6006880ACE50B6401450A70A412000320B018
:1001B6009E7F147E0012039C20B09430B0FDE4F5BF
:0801C6000AF50B1203348087D7
:0603DF00C2A58F80D2A729
:0803E5007F027EEFDEFEDFFC6B
:0103ED0022ED
:0A03FA00C2A61203DFC2A70203E54A
:1002F900CFCDCFCECCCE1200F17C007D0A1200F119
:04030900ED2430FFB0
:0A030D00D2A61203DFC2A70203E527
:1003B500AE07BE0104ED148006BE0209ED243F44DC
:0603C50080FF1203FA2282
:1003CB007F381203FA7F0C1203FA7F061203FA7FAF
:0403DB00010203FA1E
:0A040400AC031203B5AF0402030DB0
:0602D6008B128A1389144B
:1002DC001203B5E4FDAB12AA13A9148D8275830029
:0C02EC001200B2FF600612030D0D80E945
:0102F80022E3
:0C0279007F0AEA24FFFDE434FFFC7E0055
:080285008E178F188C198D1AD9
:10028D007F017E00E4FBEBC3951AE5196480F874D9
:0E029D008098500AAC17AD181200DF0B80E8F5
:0102AB002230
:040317008A148B15A4
:10031B001203B5AA16EAD39400400D120279AC145D
:08032B00AD151202F91A80ED74
:0103330022A7
:1001CE001203B5C3EA64809480400B7F2B12030D9B
:1001DE008A208B21800E7F2D12030DC3E49BF52107
:1001EE00E49AF520AA1FEAD39400400D120279ACCE
:0901FE0020AD211202F91A80ED76
:0102070022D4
:040208008A248B2594
:10020C001203B5AA26EAD3940040297F1012027B70
:10021C00AC24AD25CFCDCFCECCCE1200F1EF540F08
:10022C00FEC3940AEE5004243080022437FF1203DC
:04023C000D1A80D146
:01024000229B
:040241008A298B2A51
:100245001203B5AA2BEAD394004028EA24FFFDE463
:1002550034FFFC7F027E00120285AC29AD2ACFCD8A
:10026500CFCECCCE1200F1EF54012430FF12030D96
:030275001A80D21A
:010278002263
:0A039C00EF1FAC0670011E4C600E4E
:0C03A6007512027513EFD513FDD512FA85
:0303B20080E822BE
:1002AC002D3E2054696D65720020202042697274C5
:1002BC00686461790020202054696D6572002D3EC0
:0A02CC0020426972746864617900D1
:100334007BFF7A0279AC7D017F011202D67BFF7AC2
:0A0344000279B57D017F020202D6A6
:10034E007BFF7A0279C17D017F011202D67BFF7A93
:0A035E000279CA7D017F020202D677
:100382003A0020202054696D657220202000202030
:0A03920030303A30303A30302000AD
:10000300E4F50CF50DF50EF50FF510F5117FE87E0F
:100013000312039CC3E50D943BE50C64809480506C
:100023000A050DE50D7041050C803DE4F50CF50D59
:10003300C3E50F943BE50E64809480500A050FE5F9
:100043000F7025050E8021E4F50EF50FC3E511941D
:1000530017E51064809480500A0511E511700905B5
:10006300108005E4F510F511751602AB11AA107D89
:10007300047F021203177BFF7A0379827D057F02D7
:100083001202D6751602AB0FAA0E7D077F0212036A
:10009300177BFF7A0379827D087F021202D67516D9
:0F00A30002AB0DAA0C7D097F0212031702001099
:100368007BFF7A0379847D017F011202D67BFF7AB5
:0A0378000379907D017F020202D696
:1000B200BB010CE58229F582E5833AF583E0225003
:1000C20006E92582F8E622BBFE06E92582F8E2224D
:0D00D200E58229F582E5833AF583E4932267
:1000DF00EF8DF0A4A8F0CF8CF0A428CE8DF0A42E35
:0200EF00FE22EF
:1000F100BC000BBE0029EF8DF084FFADF022E4CCF3
:10010100F875F008EF2FFFEE33FEEC33FCEE9DECBB
:10011100984005FCEE9DFE0FD5F0E9E4CEFD22ED01
:10012100F8F5F0EE8420D21CFEADF075F008EF2F4B
:10013100FFED33FD4007985006D5F0F222C398FD3C
:050141000FD5F0EA22D9
:00000001FF
