:0300000002000EED
:0C000E00787FE4F6D8FD75810A020055E9
:080003001200DD1200C280FBB7
:1000DD005389F0758A66758CFCC28DD28CD2A9D2EB
:0400ED00AFC2B922C3
:0700F100010A0002080000F3
:1000C200E50AC394084003E4F50AAF0AA8077401DD
:0B00D200088002C333D8FCF4F5A02224
:03000B0002009A56
:04009A00C0E0C0D032
:10009E00758A66758CFC0509E50970020508C3941E
:0F00AE00E8E50894034008750800750900050A85
:0500BD00D0D0D0E032BC
:10001A00020003E493A3F8E493A34003F68001F2F9
:10002A0008DFF48029E493A3F85407240CC8C333E7
:10003A00C4540F4420C8834004F456800146F6DFB6
:10004A00E4800B01020408102040809000F1E47E55
:10005A00019360BCA3FF543F30E509541FFEE493AB
:10006A00A360010ECF54C025E060A840B8E493A372
:10007A00FAE493A3F8E493A3C8C582C8CAC583CA9D
:10008A00F0A3C8C582C8CAC583CADFE9DEE780BE55
:0100F8000007
:00000001FF
