:030000000201C337
:0C01C300787FE4F6D8FD75810B0201D7AF
:0501D70012013480FB61
:10018B0000EF1FAC0670011E4C600A7D027CC7DCC1
:05019B00FEDDFC80EC1C
:0101A000223C
:0E01B400AD071FED60087E021EEE60F480FABB
:0101C200221A
:10000300E4F50B20B1327F14FE12018B30B1FD7F7A
:10001300147E0012018BE4F508F509B2A57F017E79
:100023000012018B0509E50970020508C39464E514
:1000330008940040E6750B0120B0337F147E001254
:10004300018B30B0FD7F147E0012018BE4F508F5BF
:1000530009B2A57F027E0012018B0509E509700232
:100063000508C39432E508940040E6750B0220B2FC
:10007300337F147E0012018B30B2FD7F147E001299
:10008300018BE4F508F509B2A57F047E0012018B0C
:100093000509E50970020508C39419E508940040B1
:1000A300E6750B0320B3337F147E0012018B30B34C
:1000B300FD7F147E0012018BE4F508F509B2A57FDC
:1000C300057E0012018B0509E50970020508C3943A
:0C00D30014E508940040E6750B04AF0B28
:0100DF0022FE
:1001740043878075985053890F438920758BF47594
:070184008DF4C2ABD28E2204
:0801CF008F993099FDC29922BD
:1001A10012015BFF600C1201CF740129F9E43AFAE4
:0301B10080EE22BB
:1000E00050617373696F6E6174652061626F7574BE
:1000F00020746563686E6F6C6F67792077696C6CCC
:10010000696E6720746F20636F6E747269627574B4
:10011000650D0A00616476656E747572652073758D
:10012000636365737320636F6F7065726174696F69
:040130006E0D0A0046
:10013400E4F50A1201741200038F0AE50AB40308F5
:100144007BFF7A0079E0800BE50AB404097BFF7A2F
:060154000179141201A163
:01015A002282
:10015B00BB010689828A83E0225002E722BBFE02A2
:09016B00E32289828A83E49322D5
:00000001FF
