:030000000202E811
:0C02E800787FE4F6D8FD75812702031131
:080311001202C512000380FB7B
:0903080054696D65723A003A0077
:10000300E4F508F509F50AF50BF50CF50D7BFF7A18
:100013000379087D017F011202387F0A7E001202F4
:10002300967FE87E03120296C3E509943BE50864D4
:10003300809480500A0509E50970410508803DE474
:10004300F508F509C3E50B943BE50A6480948050F9
:100053000A050BE50B7025050A8021E4F50AF50B6B
:10006300C3E50D9417E50C64809480500A050DE5F3
:100073000D7009050C8005E4F50CF50D751202AB46
:100083000DAA0C7D037F021202797BFF7A03790F9D
:100093007D057F02120238751202AB0BAA0A7D0698
:1000A3007F021202797BFF7A03790F7D087F0212A8
:1000B3000238751202AB09AA087D097F0212027980
:0300C30002002414
:0A029600EF1FAC0670011E4C600E55
:0C02A000750E02750FEFD50FFDD50EFA9C
:0302AC0080E822C5
:0602D900C2A58F80D2A730
:0802DF007F027EEFDEFEDFFC72
:0102E70022F4
:0A02F400C2A61202D9C2A70202DF5F
:10025B00CFCDCFCECCCE1201057C007D0A1201058D
:04026B00ED2430FF4F
:0A026F00D2A61202D9C2A70202DFD4
:1002AF00AE07BE0104ED148006BE0209ED243F44E3
:0602BF0080FF1202F42290
:1002C5007F381202F47F0C1202F47F061202F47FCB
:0402D500010202F42C
:0A02FE00AC031202AFAF0402026F5E
:060238008B0E8A0F8910F5
:10023E001202AFE4FDAB0EAA0FA9108D82758300DA
:0C024E001200C6FF600612026F0D80E96E
:01025A002281
:0C0205007F0AEA24FFFDE434FFFC7E00C9
:080211008E138F148C158D165D
:100219007F017E00E4FBEBC39516E5156480F87455
:0E0229008098500AAC13AD141200F30B80E85D
:0102370022A4
:040279008A108B114B
:10027D001202AFAA12EAD39400400D120205AC107F
:08028D00AD1112025B1A80EDB5
:010295002246
:10015A001202AFC3EA64809480400B7F2B12026FB5
:10016A008A1C8B1D800E7F2D12026FC3E49BF51D26
:10017A00E49AF51CAA1BEAD39400400D120205ACBE
:09018A001CAD1D12025B1A80ED90
:010193002249
:040194008A208B2111
:100198001202AFAA22EAD3940040297F1012020764
:1001A800AC20AD21CFCDCFCECCCE120105EF540F70
:1001B800FEC3940AEE5004243080022437FF120252
:0401C8006F1A80D159
:0101CC002210
:0401CD008A258B26CE
:1001D1001202AFAA27EAD394004028EA24FFFDE4E3
:1001E10034FFFC7F027E00120211AC25AD26CFCD7B
:1001F100CFCECCCE120105EF54012430FF12026F95
:030201001A80D28E
:0102040022D7
:1000C600BB010CE58229F582E5833AF583E02250EF
:1000D60006E92582F8E622BBFE06E92582F8E22239
:0D00E600E58229F582E5833AF583E4932253
:1000F300EF8DF0A4A8F0CF8CF0A428CE8DF0A42E21
:02010300FE22DA
:10010500BC000BBE0029EF8DF084FFADF022E4CCDE
:10011500F875F008EF2FFFEE33FEEC33FCEE9DECA7
:10012500984005FCEE9DFE0FD5F0E9E4CEFD22EDED
:10013500F8F5F0EE8420D21CFEADF075F008EF2F37
:10014500FFED33FD4007985006D5F0F222C398FD28
:050155000FD5F0EA22C5
:00000001FF
