:03000000020003F8
:0C000300787FE4F6D8FD75810A02004AFF
:050185001200D780FB11
:10008F00000000000000000081FF810000324926BF
:10009F00003C02023C007F4830001C2A2A18003E18
:1000AF00102010000038444221424438000001045F
:1000BF001848FF0072898966007E81816600000002
:0800CF00000000000000000029
:06017E0001080001090068
:1000D700E4F50AF50AE50A250890008F93FDAF0AB3
:1000E700120135050AE50AC3940840E90509E5093F
:1000F700B40A05E4F5090508E508B44003E4F50882
:0101070022D5
:1001590000EF1FAC0670011E4C600A7D027CC7DCF3
:05016900FEDDFC80EC4E
:01016E00226E
:0E016F00AD071FED60087E021EEE60F480FA00
:01017D00225F
:01018A002252
:02010800AD0741
:10010A00E4FBC2B67E007480A803088006CEA2E78C
:10011A0013CE13D8F8FFEDF582EF558224FF92B47F
:0A012A00D2B60BBB08DCD2B5C2B59B
:0101340022A8
:10013500AE05AC07AF06120108AF04A80774800826
:100145008002C313D8FCF4F5807F017E00120159AB
:040155007580FF2290
:10000F00020185E493A3F8E493A34003F68001F281
:10001F0008DFF48029E493A3F85407240CC8C333F2
:10002F00C4540F4420C8834004F456800146F6DFC1
:10003F00E4800B010204081020408090017EE47ED2
:10004F00019360BCA3FF543F30E509541FFEE493B6
:10005F00A360010ECF54C025E060A840B8E493A37D
:10006F00FAE493A3F8E493A3C8C582C8CAC583CAA8
:10007F00F0A3C8C582C8CAC583CADFE9DEE780BE60
:01018400007A
:00000001FF
