:030000000202D722
:0C02D700787FE4F6D8FD75810A0202E38E
:0502E30012014B80FB3D
:1002B20000EF1FAC0670011E4C600A7D027CC7DC99
:0502C200FEDDFC80ECF4
:0102C7002214
:0E02C800AD071FED60087E021EEE60F480FAA6
:0102D6002205
:0102E80022F3
:02026100AD07E7
:10026300E4FBC2B67E007480A803088006CEA2E732
:1002730013CE13D8F8FFEDF582EF558224FF92B425
:0A028300D2B60BBB08DCD2B5C2B541
:01028D00224E
:10028E00AE05AC07AF06120261AF04A80774800872
:10029E008002C313D8FCF4F5807F017E001202B2F7
:0402AE007580FF2236
:10000300750AFF7590FFC2932097147F147E001228
:1000130002B23097FD7F147E001202B2750A0120EE
:1000230096147F147E001202B23096FD7F147E0078
:100033001202B2750A042095147F147E001202B2D4
:100043003095FD7F147E001202B2750A077590FF8A
:10005300C2922097147F147E001202B23097FD7F64
:10006300147E001202B2750A022096147F147E00D9
:100073001202B23096FD7F147E001202B2750A0599
:100083002095147F147E001202B23095FD7F147EFA
:10009300001202B2750A082094147F147E00120223
:1000A300B23094FD7F147E001202B2E4F50A75901B
:1000B300FFC2912097147F147E001202B23097FD85
:1000C3007F147E001202B2750A032096147F147EF9
:1000D300001202B23096FD7F147E001202B2750A3E
:1000E300062095147F147E001202B23095FD7F1412
:1000F3007E001202B2750A097590FFC29020971410
:100103007F147E001202B23097FD7F147E0012022C
:10011300B2750A0B2096147F147E001202B2309639
:10012300FD7F147E001202B2750A0C2095147F1411
:100133007E001202B23095FD7F147E001202B2756A
:070143000A0D7590FFAF0AE1
:01014A002292
:1001F90000007E81817E0000000041FFFF010000B8
:100209000041838589710000004281898976000057
:1002190000187808FF0808000008F151510E000085
:10022900007E9191914E0000008080818CE0000059
:10023900006E9191916E000000728989897E00009B
:100249000001041848FF00000066918989660000D2
:08025900007E818181816600B5
:10014B001200038F08E508D394095035E4F509E54F
:10015B000875F008A424F9F582E43401F583E582EF
:10016B002509F582E43583F583E493FDAF0912028B
:10017B008E7F027E001202B20509E509C394084086
:10018B00CEE50824F460271460442402705FE4F584
:10019B0009E50990024993FDAF0912028E7F027E99
:1001AB00001202B20509E509C3940840E422E4F504
:1001BB0009E50990025193FDAF0912028E7F027E71
:1001CB00001202B20509E509C3940840E422E4F5E4
:1001DB0009E50990025993FDAF0912028E7F027E49
:0D01EB00001202B20509E509C3940840E4C2
:0101F80022E4
:00000001FF
