:0300000002007E7D
:0C007E00787FE4F6D8FD758107020003CE
:0600610012006775A03CCF
:080067007FC37E8ADEFEDFFC90
:01006F00226E
:0D007000007F087E9A7D7ADDFEDEFCDFFA5F
:01007D002260
:1000030012007075A0FE12006775A0FD12006775DF
:10001300A0FB12006775A0F712006775A0EF12002E
:100023006775A0DF12006775A0BF12006775A07F18
:10003300120067E4F5A012007075A0181200617534
:10004300A07E12006775A0FF12006775A07E1200E4
:0E0053006175A018120067F5A012006780A268
:00000001FF
