:030000000202DD1C
:0C02DD00787FE4F6D8FD7581220202153E
:04030200525443000E
:100215001202BA1202FD7BFF7A0379027D017F018A
:100225001202467D037F801200977F811200EE8FB8
:1002350022EFFB7A00750C037D017F021202878095
:01024500E9CF
:0602CE00C2A58F80D2A73B
:0802D4007F027EEFDEFEDFFC7D
:0102DC0022FF
:0A02E900C2A61202CEC2A70202D480
:10026900CFCDCFCECCCE1200427C007D0A12004207
:04027900ED2430FF41
:0A027D00D2A61202CEC2A70202D4DC
:1002A400AE07BE0104ED148006BE0209ED243F44EE
:0602B40080FF1202E922A6
:1002BA007F381202E97F0C1202E97F061202E97FF7
:0402CA00010202E942
:0A02F300AC031202A4AF0402027D66
:060246008B088A09890AF9
:10024C001202A4E4FDAB08AA09A90A8D82758300E9
:0C025C00120003FF600612027D0D80E915
:010268002273
:0C01E2007F0AEA24FFFDE434FFFC7E00ED
:0801EE008E0D8F0E8C0F8D1099
:1001F6007F017E00E4FBEBC39510E50F6480F87485
:0E0206008098500AAC0DAD0E1200300B80E84F
:0102140022C7
:040287008A0A8B0B49
:10028B001202A4AA0CEAD39400400D1201E2AC0AAC
:08029B00AD0B1202691A80ED9F
:0102A3002238
:100137001202A4C3EA64809480400B7F2B12027DD5
:100147008A168B17800E7F2D12027DC3E49BF5174D
:10015700E49AF516AA15EAD39400400D1201E2AC11
:0901670016AD171202691A80EDB1
:01017000226C
:040171008A1A8B1B40
:100175001202A4AA1CEAD3940040297F101201E4BC
:10018500AC1AAD1BCFCDCFCECCCE120042EF540F63
:10019500FEC3940AEE5004243080022437FF120275
:0401A5007D1A80D16E
:0101A9002233
:0401AA008A1F8B20FD
:1001AE001202A4AA21EAD394004028EA24FFFDE417
:1001BE0034FFFC7F027E001201EEAC1FAD20CFCDCE
:1001CE00CFCECCCE120042EF54012430FF12027D6E
:0301DE001A80D2B2
:0101E10022FB
:0502FD00C2B5C2B622EB
:060097008C088D09AB0787
:10009D00D2B5E4FD7E007401A805088005C333CEFA
:1000AD0033CED8F9FFEBF582EF558224FF92B4D20F
:1000BD00B6C2B60DBD08DDE4FD7E007401A80508CD
:1000CD008005C333CE33CED8F9FFE5085EFEE509D2
:1000DD005F4E24FF92B4D2B6C2B60DBD08DBC2B5D9
:0100ED0022F0
:0200EE00A90760
:1000F000E4FDD2B5FB7E007401A803088005C3337C
:10010000CE33CED8F9FFE9F582EF558224FF92B4C1
:10011000C2B6D2B60BBB08DDE4FBD2B6C2B630B471
:100120000DA8037401088002C333D8FC42050BBB41
:0601300008E8C2B5AF05AE
:0101360022A6
:10000300BB010CE58229F582E5833AF583E02250B2
:1000130006E92582F8E622BBFE06E92582F8E222FC
:0D002300E58229F582E5833AF583E4932216
:10003000EF8DF0A4A8F0CF8CF0A428CE8DF0A42EE4
:02004000FE229E
:10004200BC000BBE0029EF8DF084FFADF022E4CCA2
:10005200F875F008EF2FFFEE33FEEC33FCEE9DEC6B
:10006200984005FCEE9DFE0FD5F0E9E4CEFD22EDB1
:10007200F8F5F0EE8420D21CFEADF075F008EF2FFB
:10008200FFED33FD4007985006D5F0F222C398FDEC
:050092000FD5F0EA2289
:00000001FF
