:0300000002014FAB
:0C014F00787FE4F6D8FD75810C0200AB4F
:100003000000000000000000FF101010FF000E159C
:10001300150C007E0102007E0102003E41413E00BC
:1000230000FD00FD000000000000000000000000D3
:10003300000000000000000081FF810038444221DD
:100043004244380000FF101010FF00FF8181423C42
:1000530000FE010101FE000000000000000000009E
:10006300000000000000000081FF810000324926EB
:10007300003C02023C007F4830001C2A2A18003E44
:10008300102010000038444221424438000001048B
:100093001848FF0072898966007E8181660000002E
:0800A300000000000000000055
:1000AB00E4F508F509F50A12015BE4F508E5082506
:1000BB000990006393FDAF081201120508E508C310
:1000CB00940840E9050AE50AB40A05E4F50A0509AE
:0A00DB00E509B440D5E4F50980D032
:0A013600EF1FAC0670011E4C600EB6
:0C014000750B02750CEFD50CFDD50BFA09
:03014C0080E82226
:01015B002281
:0200E500AD0765
:1000E700E4FBC2B67E007480A803088006CEA2E7B0
:1000F70013CE13D8F8FFEDF582EF558224FF92B4A3
:0A010700D2B60BBB08DCD2B5C2B5BE
:0101110022CB
:10011200AE05AC07AF061200E5AF04A8077480086D
:100122008002C313D8FCF4F5807F017E00120136F1
:040132007580FF22B3
:00000001FF
