:0300000002030BED
:0C030B00787FE4F6D8FD7581270200978A
:0B03170041444A004E5443004752008E
:100097001202E87BFF7A0379177D017F0112025B69
:1000A7007BFF7A03791B7D077F0112025B7BFF7A57
:1000B70003791F7D0C7F0112025B7F9C12010F8E5B
:1000C700188F197FDC12010F8E1A8F1B7FAC12015C
:1000D7000F8E1C8F1D750C04AB19AA187D017F02AA
:1000E70012029C750C04AB1BAA1A7D077F02120231
:1000F7009C750C04AB1DAA1C7D0C7F0212029C7F11
:080107000A7E001202B980B269
:0A02B900EF1FAC0670011E4C600E32
:0C02C3007508027509EFD509FDD508FA91
:0302CF0080E822A2
:0602FC00C2A58F80D2A70D
:080302007F027EEFDEFEDFFC4E
:01030A0022D0
:0A032200C2A61202FCC2A7020302E9
:10027E00CFCDCFCECCCE1200427C007D0A120042F2
:04028E00ED2430FF2C
:0A029200D2A61202FCC2A70203026A
:1002D200AE07BE0104ED148006BE0209ED243F44C0
:0602E20080FF120322223E
:1002E8007F381203227F0C1203227F061203227F1B
:0402F80001020322DA
:0A032C00AC031202D2AF04020292E9
:06025B008B088A09890AE4
:100261001202D2E4FDAB08AA09A90A8D82758300A6
:0C027100120003FF60061202920D80E9EB
:01027D00225E
:0C0228007F0AEA24FFFDE434FFFC7E00A6
:080234008E0D8F0E8C0F8D1052
:10023C007F017E00E4FBEBC39510E50F6480F8743E
:0E024C008098500AAC0DAD0E1200300B80E809
:01025A002281
:04029C008A0A8B0B34
:1002A0001202D2AA0CEAD39400400D120228AC0A22
:0802B000AD0B12027E1A80ED75
:0102B8002223
:10017D001202D2C3EA64809480400B7F2B1202924C
:10018D008A168B17800E7F2D120292C3E49BF517F2
:10019D00E49AF516AA15EAD39400400D120228AC84
:0901AD0016AD1712027E1A80ED56
:0101B6002226
:0401B7008A208B21EE
:1001BB001202D2AA22EAD3940040297F1012022AFB
:1001CB00AC20AD21CFCDCFCECCCE120042EF540F11
:1001DB00FEC3940AEE5004243080022437FF12022F
:0401EB00921A80D113
:0101EF0022ED
:0401F0008A258B26AB
:1001F4001202D2AA27EAD394004028EA24FFFDE49D
:1002040034FFFC7F027E00120234AC25AD26CFCD34
:10021400CFCECCCE120042EF54012430FF12029212
:030224001A80D26B
:0102270022B4
:02010F00AD073A
:10011100E4F508F509C2B5C2B6FB7E007480A803F8
:10012100088006CEA2E713CE13D8F8FFEDF582EFD3
:10013100558224FF92B4D2B6C2B60BBB08DCE4FBF5
:10014100D2B6C2B630B7147E80E4A803088005CECB
:10015100C313CE13D8F94209EE42080BBB10E1D20A
:10016100B5ED30E306E508FF7E0022E508C4F8544A
:0B017100F0C868FEE509C4540F48FF09
:01017C002260
:10000300BB010CE58229F582E5833AF583E02250B2
:1000130006E92582F8E622BBFE06E92582F8E222FC
:0D002300E58229F582E5833AF583E4932216
:10003000EF8DF0A4A8F0CF8CF0A428CE8DF0A42EE4
:02004000FE229E
:10004200BC000BBE0029EF8DF084FFADF022E4CCA2
:10005200F875F008EF2FFFEE33FEEC33FCEE9DEC6B
:10006200984005FCEE9DFE0FD5F0E9E4CEFD22EDB1
:10007200F8F5F0EE8420D21CFEADF075F008EF2FFB
:10008200FFED33FD4007985006D5F0F222C398FDEC
:050092000FD5F0EA2289
:00000001FF
