:030000000203CB2D
:0C03CB00787FE4F6D8FD758124020192D1
:10031E0048656C6C6F20576F726C6421005061736E
:10032E0073776F72643A200057726F6E67212100E7
:100192007508FF750900750A011203A87BFF7A032F
:1001A200791E7D017F011202FB7FEE7E021203792E
:1001B2001203A87BFF7A03792B7D017F011202FBD8
:1001C2001200038F08E508F46018050AE50A7002B8
:1001D200050914FDEFFB3395E0FA750F017F02125A
:1001E200035CD3E50A9406E5096480948040D17BE0
:1001F200FF7A0379367D017F021202FB7FE87E03DC
:10020200120379750900750A011203A87BFF7A03AC
:0B021200792B7D017F011202FB80A50B
:0A037900EF1FAC0670011E4C600E71
:0C038300750C02750DEFD50DFDD50CFAC0
:03038F0080E822E1
:10000300750BFF7590FFC2932097147F147E001227
:1000130003793097FD7F147E00120379750B01205D
:1000230096147F147E001203793096FD7F147E00B0
:10003300120379750B042095147F147E0012037943
:100043003095FD7F147E00120379750B077590FFC1
:10005300C2922097147F147E001203793097FD7F9C
:10006300147E00120379750B022096147F147E0010
:100073001203793096FD7F147E00120379750B0508
:100083002095147F147E001203793095FD7F147E32
:1000930000120379750B082094147F147E00120359
:1000A300793094FD7F147E00120379E4F50B75908B
:1000B300FFC2912097147F147E001203793097FDBD
:1000C3007F147E00120379750B032096147F147E30
:1000D300001203793096FD7F147E00120379750BAD
:1000E300062095147F147E001203793095FD7F144A
:0A00F3007E00120379750B09AF0BB4
:0100FD0022E0
:0603BC00C2A58F80D2A74C
:0803C2007F027EEFDEFEDFFC8E
:0103CA002210
:0A03D700C2A61203BCC2A70203C2B3
:10033E00CFCDCFCECCCE12013D7C007D0A12013D39
:04034E00ED2430FF6B
:0A035200D2A61203BCC2A70203C228
:10039200AE07BE0104ED148006BE0209ED243F44FF
:0603A20080FF1203D722C8
:1003A8007F381203D77F0C1203D77F061203D77F3B
:0403B800010203D764
:0A03E100AC03120392AF04020352B2
:0602FB008B0B8A0C890D3B
:10030100120392E4FDAB0BAA0CA90D8D827583003B
:0C0311001200FEFF60061203520D80E98E
:01031D0022BD
:0C02C8007F0AEA24FFFDE434FFFC7E0006
:0802D4008E108F118C128D13A6
:1002DC007F017E00E4FBEBC39513E5126480F87498
:0E02EC008098500AAC10AD1112012B0B80E867
:0102FA0022E1
:04035C008A0D8B0E6D
:10036000120392AA0FEAD39400400D1202C8AC0DFA
:08037000AD0E12033E1A80EDF0
:010378002262
:10021D00120392C3EA64809480400B7F2B12035229
:10022D008A198B1A800E7F2D120352C3E49BF51A87
:10023D00E49AF519AA18EAD39400400D1202C8AC3D
:09024D0019AD1A12033E1A80EDEE
:010256002285
:040257008A1D8B1E53
:10025B00120392AA1FEAD3940040297F101202CAFC
:10026B00AC1DAD1ECFCDCFCECCCE12013DEF540F7A
:10027B00FEC3940AEE5004243080022437FF12038D
:04028B00521A80D1B2
:01028F00224C
:040290008A228B2310
:10029400120392AA24EAD394004028EA24FFFDE43E
:1002A40034FFFC7F027E001202D4AC22AD23CFCDFA
:1002B400CFCECCCE12013DEF54012430FF120352B5
:0302C4001A80D2CB
:0102C7002214
:1000FE00BB010CE58229F582E5833AF583E02250B7
:10010E0006E92582F8E622BBFE06E92582F8E22200
:0D011E00E58229F582E5833AF583E493221A
:10012B00EF8DF0A4A8F0CF8CF0A428CE8DF0A42EE8
:02013B00FE22A2
:10013D00BC000BBE0029EF8DF084FFADF022E4CCA6
:10014D00F875F008EF2FFFEE33FEEC33FCEE9DEC6F
:10015D00984005FCEE9DFE0FD5F0E9E4CEFD22EDB5
:10016D00F8F5F0EE8420D21CFEADF075F008EF2FFF
:10017D00FFED33FD4007985006D5F0F222C398FDF0
:05018D000FD5F0EA228D
:00000001FF
