:0300000002026594
:0C026500787FE4F6D8FD7581130200B725
:070242007E001200037F01A2
:0A024900EF1FAC0670011E4C600EA2
:0C0253007512027513EFD513FDD512FAD9
:06025F0080E8E4FEFF222E
:10000300EE705BEF14B40800505490001B75F003BE
:10001300A4C58325F0C5837302005B020057020069
:100023004F02004B02004302003F0200370200333D
:10003300C2A28002D2A2C2A3C2A48022C2A2800210
:10004300D2A2D2A3C2A48016C2A28002D2A2C2A309
:10005300D2A4800AC2A28002D2A2D2A3D2A4EC70FC
:1000630052EDB40A00504C900071F8282873020036
:10007300B302008F02009302009702009B02009FCD
:100083000200A30200A70200AB0200AF75800622A4
:1000930075805B2275804F227580662275806D2284
:1000A30075807D227580072275807F2275806F227F
:0400B30075803F22F3
:04027100E4F580220E
:0801CF00AD0BAC0AAF09AE084C
:0801D7008E0E8F0F8C108D11AC
:1001DF00E4FBFAAE0EAF0F7C007D0A1201447F08DC
:1001EF00120242120271AE0EAF0F7C007D0A120195
:1001FF0044AC06AD077F07120242120271AE10AF78
:10020F00117C007D0A1201447F0412024212027116
:10021F00AE10AF117C007D0A120144AC06AD077F12
:10022F00031202421202710BBB00010AEB64FA4A7D
:02023F0070A1AC
:01024100229A
:1000B700E4F508F509F50AF50BF50CF50D20B11671
:1000C7007F14FE12024930B1FD7F147E00120249EF
:1000D700750C00750D01E50D450C60421201CF0549
:1000E70009E50970020508643C45087016F508F52E
:1000F70009050BE50B7002050A643C450A7004F517
:100107000AF50B20B1D07F147E0012024930B1FDF1
:100117007F147E00120249E4F50CF50D80B8E50D59
:10012700450C70181201CF20B1F47F147E00120223
:0C0137004920B1EA750C00750D0180E252
:010143002299
:10014400C2D5EC30E709B2D5E4C39DFDE49CFCEED6
:1001540030E715B2D5E4C39FFFE49EFE12017AC3D3
:10016400E49DFDE49CFC800312017A30D507C3E4CE
:060174009FFFE49EFE2245
:10017A00BC000BBE0029EF8DF084FFADF022E4CC69
:10018A00F875F008EF2FFFEE33FEEC33FCEE9DEC32
:10019A00984005FCEE9DFE0FD5F0E9E4CEFD22ED78
:1001AA00F8F5F0EE8420D21CFEADF075F008EF2FC2
:1001BA00FFED33FD4007985006D5F0F222C398FDB3
:0501CA000FD5F0EA2250
:00000001FF
