:030000000202C633
:0C02C600787FE4F6D8FD7581210202E685
:0802E6001202941201E380FBF7
:0302EE0047520074
:1001E3007BFF7A0279EE7D017F0112020A7FA5125D
:1001F3000097AB07AA06750C047D017F0212024B20
:070203007F647E0002026827
:1002680000EF1FAC0670011E4C600A7D027CC7DCE3
:05027800FEDDFC80EC3E
:01027D00225E
:0E02A800AD071FED60087E021EEE60F480FAC6
:0102B6002225
:0602B700C2A58F80D2A752
:0802BD007F027EEFDEFEDFFC94
:0102C5002216
:0A02D200C2A61202B7C2A70202BDC5
:10022D00CFCDCFCECCCE1200427C007D0A12004243
:04023D00ED2430FF7D
:0A024100D2A61202B7C2A70202BD46
:10027E00AE07BE0104ED148006BE0209ED243F4414
:06028E0080FF1202D222E3
:100294007F381202D27F0C1202D27F061202D27F62
:0402A400010202D27F
:0A02DC00AC0312027EAF04020241DF
:06020A008B088A09890A35
:1002100012027EE4FDAB08AA09A90A8D827583004B
:0C022000120003FF60061202410D80E98D
:01022C0022AF
:0C01B0007F0AEA24FFFDE434FFFC7E001F
:0801BC008E0D8F0E8C0F8D10CB
:1001C4007F017E00E4FBEBC39510E50F6480F874B7
:0E01D4008098500AAC0DAD0E1200300B80E882
:0101E20022FA
:04024B008A0A8B0B85
:10024F0012027EAA0CEAD39400400D1201B0AC0A40
:08025F00AD0B12022D1A80ED17
:010267002274
:1001050012027EC3EA64809480400B7F2B12024169
:100115008A168B17800E7F2D120241C3E49BF517BB
:10012500E49AF516AA15EAD39400400D1201B0AC75
:0901350016AD1712022D1A80ED1F
:01013E00229E
:04013F008A1A8B1B72
:1001430012027EAA1CEAD3940040297F101201B246
:10015300AC1AAD1BCFCDCFCECCCE120042EF540F95
:10016300FEC3940AEE5004243080022437FF1202A7
:04017300411A80D1DC
:010177002265
:040178008A1F8B202F
:10017C0012027EAA21EAD394004028EA24FFFDE46F
:10018C0034FFFC7F027E001201BCAC1FAD20CFCD32
:10019C00CFCECCCE120042EF54012430FF120241DC
:0301AC001A80D2E4
:0101AF00222D
:02009700AD07B3
:10009900E4F508F509C2B5C2B6FB7E007480A80371
:1000A900088006CEA2E713CE13D8F8FFEDF582EF4C
:1000B900558224FF92B4D2B6C2B60BBB08DCE4FB6E
:1000C900D2B6C2B630B7147E80E4A803088005CE44
:1000D900C313CE13D8F94209EE42080BBB10E1D283
:1000E900B5ED30E306E508FF7E0022E508C4F854C3
:0B00F900F0C868FEE509C4540F48FF82
:0101040022D8
:10000300BB010CE58229F582E5833AF583E02250B2
:1000130006E92582F8E622BBFE06E92582F8E222FC
:0D002300E58229F582E5833AF583E4932216
:10003000EF8DF0A4A8F0CF8CF0A428CE8DF0A42EE4
:02004000FE229E
:10004200BC000BBE0029EF8DF084FFADF022E4CCA2
:10005200F875F008EF2FFFEE33FEEC33FCEE9DEC6B
:10006200984005FCEE9DFE0FD5F0E9E4CEFD22EDB1
:10007200F8F5F0EE8420D21CFEADF075F008EF2FFB
:10008200FFED33FD4007985006D5F0F222C398FDEC
:050092000FD5F0EA2289
:00000001FF
