:0300000002096092
:0C096000787FE4F6D8FD75812D0209A710
:100AE300E4F508120E40E5087005120DB48044E5E4
:100AF30008B401051209EC803AE508B40205120CAA
:100B03005E8030E508B4030512000E8026E508B4C4
:100B13000405120DCF801CE508B40505120CE48012
:100B230012E508B40605120D0B8008E508B40703A7
:100B3300120C2D12070FEF640170AB0508120E4063
:0C0B4300E508C39408409FE4F508809A80
:1005ED0048656C6C6F2C20576F726C64210049202C
:1005FD004C4F564520415343212100475200506135
:10060D007373696F6E6174652061626F75742074A8
:10061D006563686E6F6C6F67792077696C6C696E56
:10062D006720746F20636F6E747269627574650DE7
:10063D000A00616476656E74757265207375636307
:10064D0065737320636F6F7065726174696F6E0D82
:10065D000A00000000000000000081FF8100003250
:10066D004926003C02023C007F4830001C2A2A1813
:10067D00003E102010000038444221424438000052
:10068D0001041848FF0072898966007E8181660029
:10069D000000000000000000000000007E81817E4F
:1006AD000000000041FFFF010000004183858971BA
:1006BD000000004281898976000000187808FF0843
:1006CD0008000008F151510E0000007E9191914EED
:1006DD000000008080818CE00000006E9191916E91
:1006ED00000000728989897E00000001041848FF0E
:1006FD0000000066918989660000007E81818181FC
:02070D00660084
:100E6700011800011200011300011400021500000F
:100DB400E518C394084003E4F518AF18A8077401B4
:0B0DC400088002C333D8FCF4F5A02225
:1009EC00120E2CE51AC3943C4019E4F51A0519E5CE
:1009FC0019943C400EE4F5190517E51794184003BB
:100A0C00E4F517E51775F00A84FD7C007F017E0084
:100A1C001207ECE51775F00A84E5F0FD7C007F0207
:100A2C007E001207ECE51975F00A84FD7C007F044A
:100A3C007E001207ECE51975F00A84E5F0FD7C00E8
:100A4C007F057E001207ECE51A75F00A84FD7C0028
:100A5C007F077E001207ECE51A75F00A84E5F0FDBD
:090A6C007C007F087E000207EC0B
:100C5E0012037ABF01020512BF02021512E51275C8
:100C6E00F00A84FD7C007F077E001207ECE512750A
:0F0C7E00F00A84E5F0FD7C007F087E000207ECA1
:10000E0012037A8F09E509B40A0040030202E69052
:10001E000024F82828730202A5020042020086027C
:10002E0000CA02010E0201520201960201DA020218
:10003E001E020262E4F50BE4F50AE50975F008A468
:10004E0024A7F582E43406F583E582250AF582E4D9
:10005E003583F583E493FDAF0A120D327F027E00E5
:10006E00120E00050AE50AC3940840CE050BE50BF7
:10007E00C3941440C20202E6E4F50BE4F50AE50966
:10008E0075F008A424A7F582E43406F583E58225ED
:10009E000AF582E43583F583E493FDAF0A120D323F
:1000AE007F027E00120E00050AE50AC3940840CEB8
:1000BE00050BE50BC3941440C20202E6E4F50BE413
:1000CE00F50AE50975F008A424A7F582E43406F5CF
:1000DE0083E582250AF582E43583F583E493FDAF4B
:1000EE000A120D327F027E00120E00050AE50AC3C7
:1000FE00940840CE050BE50BC3941440C20202E6F1
:10010E00E4F50BE4F50AE50975F008A424A7F582D9
:10011E00E43406F583E582250AF582E43583F5831A
:10012E00E493FDAF0A120D327F027E00120E00051F
:10013E000AE50AC3940840CE050BE50BC3941440A0
:10014E00C20202E6E4F50BE4F50AE50975F008A42F
:10015E0024A7F582E43406F583E582250AF582E4C8
:10016E003583F583E493FDAF0A120D327F027E00D4
:10017E00120E00050AE50AC3940840CE050BE50BE6
:10018E00C3941440C20202E6E4F50BE4F50AE50955
:10019E0075F008A424A7F582E43406F583E58225DC
:1001AE000AF582E43583F583E493FDAF0A120D322E
:1001BE007F027E00120E00050AE50AC3940840CEA7
:1001CE00050BE50BC3941440C20202E6E4F50BE402
:1001DE00F50AE50975F008A424A7F582E43406F5BE
:1001EE0083E582250AF582E43583F583E493FDAF3A
:1001FE000A120D327F027E00120E00050AE50AC3B6
:10020E00940840CE050BE50BC3941440C20202E6DF
:10021E00E4F50BE4F50AE50975F008A424A7F582C8
:10022E00E43406F583E582250AF582E43583F58309
:10023E00E493FDAF0A120D327F027E00120E00050E
:10024E000AE50AC3940840CE050BE50BC39414408F
:10025E00C20202E6E4F50BE4F50AE50975F008A41E
:10026E0024A7F582E43406F583E582250AF582E4B7
:10027E003583F583E493FDAF0A120D327F027E00C3
:10028E00120E00050AE50AC3940840CE050BE50BD5
:10029E00C3941440C28041E4F50BE4F50AE50975F8
:1002AE00F008A424A7F582E43406F583E582250A36
:1002BE00F582E43583F583E493FDAF0A120D327FA8
:1002CE00027E00120E00050AE50AC3940840CE0510
:1002DE000BE50BC3941440C2E50924F46036146098
:1002EE005F24026003020379E4F50BE4F50AE50AE4
:1002FE009006F793FDAF0A120D327F027E00120EAA
:10030E0000050AE50AC3940840E4050BE50BC39407
:10031E001440D822E4F50BE4F50AE50A9006FF93A3
:10032E00FDAF0A120D327F027E00120E00050AE5A5
:10033E000AC3940840E4050BE50BC3941440D8227D
:10034E00E4F50BE4F50AE50A90070793FDAF0A12F0
:10035E000D327F027E00120E00050AE50AC39408D4
:0B036E0040E4050BE50BC3941440D8DD
:010379002261
:100DCF007BFF7A0579ED7D017F01120D567BFF7A4E
:0A0DDF000579FB7D017F02020D562D
:100CE4007BFF7A0679087D017F01120D567FA512DC
:100CF4000A75AB07AA06750D047D017F02120D97D4
:070D04007F647E00020E0077
:100D0B00E4F509120DE912070F8F09E509B4030881
:100D1B007BFF7A06790B800BE509B404097BFF7A1C
:060D2B0006793F120E5490
:010D3100229F
:100C2D00E4F509F509E509251390065F93FDAF0974
:100C3D00120D320509E509C3940840E90514E514C0
:100C4D00B40A05E4F5140513E513B44003E4F513F4
:010C5D002274
:03000B00020CBA2A
:040CBA00C0E0C0D006
:100CBE00758A66758CFC0516E51670020515C394CB
:100CCE00E8E5159403400A7515007516000518051C
:010CDE001AFB
:050CDF00D0D0D0E0328E
:040EAA00E4F58022C9
:100E000000EF1FAC0670011E4C600A7D027CC7DC3F
:050E1000FEDDFC80EC9A
:010E150022BA
:0E0E7800AD071FED60087E021EEE60F480FAEA
:010E86002249
:10070F00E4F50A20B1327F14FE120E0030B1FD7FE6
:10071F00147E00120E00E4F52CF52DB2A57F017E9C
:10072F0000120E00052DE52D7002052CC39464E513
:10073F002C940040E6750A0120B0337F147E00121E
:10074F000E0030B0FD7F147E00120E00E4F52CF584
:10075F002DB2A57F027E00120E00052DE52D700231
:10076F00052CC39432E52C940040E6750A0220B2A2
:10077F00337F147E00120E0030B2FD7F147E001204
:10078F000E00E4F52CF52DB2A57F047E00120E00AD
:10079F00052DE52D7002052CC39450E52C940040D7
:1007AF00E6750A0320B3337F147E00120E0030B3B8
:1007BF00FD7F147E00120E00E4F52CF52DB2A57FFF
:1007CF00057E00120E00052DE52D7002052CC39439
:0C07DF0028E52C940040E6750A04AF0ADF
:0107EB0022EB
:1007EC00EE705BEF14B40800505490080475F003DD
:1007FC00A4C58325F0C5837302084402084002088F
:10080C003802083402082C02082802082002081CAE
:10081C00C2A28002D2A2C2A3C2A48022C2A280021F
:10082C00D2A2D2A3C2A48016C2A28002D2A2C2A318
:10083C00D2A4800AC2A28002D2A2D2A3D2A4EC700B
:10084C0065EDB40A00505F90085AF8282873020826
:10085C00A502087802087D02088202088702088C2B
:10086C0002089102089602089B0208A07580068077
:10087C002B75805B802675804F8021758066801C6F
:10088C0075806D801775807D8012758007800D7561
:10089C00807F800875806F800375803F7F017E00AC
:0708AC00120E00120EAA2239
:100E2C005389F0758A66758CFCC28DD28CD2A9D28E
:040E3C00AFC2B92266
:010EAE002221
:020C8D00AD07B1
:100C8F00E4FBC2B67E007480A803088006CEA2E7FC
:100C9F0013CE13D8F8FFEDF582EF558224FF92B4EF
:0A0CAF00D2B60BBB08DCD2B5C2B50B
:010CB9002218
:100D3200AE05AC07AF06120C8DAF04A8077480088D
:100D42008002C313D8FCF4F5807F017E00120E00EE
:040D52007580FF2287
:10037A00750CFF7590FFC29320972B7F147E001295
:10038A000E003097FD7F147E00120E00E4F50DB2C8
:10039A00A57F017E00120E00050DC3E50D64809451
:1003AA00E440EC750C0120962B7F147E00120E009F
:1003BA003096FD7F147E00120E00E4F50DB2A57F83
:1003CA00017E00120E00050DC3E50D648094E44021
:1003DA00EC750C0420952B7F147E00120E003095CC
:1003EA00FD7F147E00120E00E4F50DB2A57F017E9A
:1003FA0000120E00050DC3E50D648094E440EC750F
:10040A000C077590FFC29220972B7F147E00120E64
:10041A00003097FD7F147E00120E00E4F50DB2A5A0
:10042A007F017E00120E00050DC3E50D648094E481
:10043A0040EC750C0220962B7F147E00120E0030C1
:10044A0096FD7F147E00120E00E4F50DB2A57F0121
:10045A007E00120E00050DC3E50D648094E440ECA5
:10046A00750C0520952B7F147E00120E003095FD29
:10047A007F147E00120E00E4F50DB2A57F017E0006
:10048A00120E00050DC3E50D648094E440EC750C72
:10049A000820942B7F147E00120E003094FD7F14E6
:1004AA007E00120E00E4F50DB2A57F017E00120E49
:1004BA0000050DC3E50D648094E440ECE4F50C7589
:1004CA0090FFC29120972B7F147E00120E00309766
:1004DA00FD7F147E00120E00E4F50DB2A57F017EA9
:1004EA0000120E00050DC3E50D648094E440EC751E
:1004FA000C0320962B7F147E00120E003096FD7F8F
:10050A00147E00120E00E4F50DB2A57F017E0012E2
:10051A000E00050DC3E50D648094E440EC750C06ED
:10052A0020952B7F147E00120E003095FD7F147EDD
:10053A0000120E00E4F50DB2A57F017E00120E0036
:10054A00050DC3E50D648094E440EC750C097590C3
:10055A00FFC29020972B7F147E00120E003097FD69
:10056A007F147E00120E00E4F50DB2A57F017E0015
:10057A00120E00050DC3E50D648094E440EC750C81
:10058A000B20962B7F147E00120E003096FD7F14EE
:10059A007E00120E00E4F50DB2A57F017E00120E58
:1005AA0000050DC3E50D648094E440EC750C0C2045
:1005BA00952B7F147E00120E003095FD7F147E006D
:1005CA00120E00E4F50DB2A57F017E00120E0005A1
:1005DA000DC3E50D648094E440EC750C0D7590FF35
:0205EA00AF0C54
:0105EC0022EC
:060E8700C2A58F80D2A776
:080E8D007F027EEFDEFEDFFCB8
:010E9500223A
:0A0E9600C2A6120E87C2A7020E8D3D
:100D7900CFCDCFCECCCE12090B7C007D0A12090B48
:040D8900ED2430FF26
:0A0D8D00D2A6120E87C2A7020E8D37
:100E1600AE07BE0104ED148006BE0209ED243F4470
:060E260080FF120E96226F
:100E40007F38120E967F0C120E967F06120E967F3A
:040E500001020E96F7
:0A0EA000AC03120E16AF04020D8D14
:060D56008B098A0A890BDB
:100D5C00120E16E4FDAB09AA0AA90B8D827583004D
:0C0D6C001208CCFF6006120D8D0D80E90E
:010D78002258
:0C0BFA007F0AEA24FFFDE434FFFC7E00CB
:080C06008E0E8F0F8C108D1172
:100C0E007F017E00E4FBEBC39511E5106480F87460
:0E0C1E008098500AAC0EAD0F1208F90B80E85A
:010C2C0022A5
:040D97008A0B8B0C2C
:100D9B00120E16AA0DEAD39400400D120BFAAC0BEF
:080DAB00AD0C120D791A80ED68
:010DB300221D
:100B4F00120E16C3EA64809480400B7F2B120D8D1A
:100B5F008A208B21800E7F2D120D8DC3E49BF521F2
:100B6F00E49AF520AA1FEAD39400400D120BFAACB9
:090B7F0020AD21120D791A80ED60
:010B8800224A
:040B89008A248B250A
:100B8D00120E16AA26EAD3940040297F10120BFCF0
:100B9D00AC24AD25CFCDCFCECCCE12090BEF540F5B
:100BAD00FEC3940AEE5004243080022437FF120D48
:040BBD008D1A80D13C
:010BC1002211
:040BC2008A298B2AC7
:100BC600120E16AA2BEAD394004028EA24FFFDE46D
:100BD60034FFFC7F027E00120C06AC29AD2ACFCD75
:100BE600CFCECCCE12090BEF54012430FF120D8D5F
:030BF6001A80D290
:010BF90022D9
:020A7500AD07CB
:100A7700E4F509F50AC2B5C2B6FB7E007480A80387
:100A8700088006CEA2E713CE13D8F8FFEDF582EF64
:100A9700558224FF92B4D2B6C2B60BBB08DCE4FB86
:100AA700D2B6C2B630B7147E80E4A803088005CE5C
:100AB700C313CE13D8F9420AEE42090BBB10E1D299
:100AC700B5ED30E306E509FF7E0022E509C4F854D9
:0B0AD700F0C868FEE50AC4540F48FF99
:010AE20022F1
:100DE90043878075985053890F438920758BF47513
:070DF9008DF4C2ABD28E2283
:080003008F993099FDC299228A
:100E54001208B3FF600C120003740129F9E43AFA92
:030E640080EE22FB
:10096C00020AE3E493A3F8E493A34003F68001F2B4
:10097C0008DFF48029E493A3F85407240CC8C3338C
:10098C00C4540F4420C8834004F456800146F6DF5B
:10099C00E4800B0102040810204080900E67E47E76
:1009AC00019360BCA3FF543F30E509541FFEE49350
:1009BC00A360010ECF54C025E060A840B8E493A317
:1009CC00FAE493A3F8E493A3C8C582C8CAC583CA42
:1009DC00F0A3C8C582C8CAC583CADFE9DEE780BEFA
:010E7700007A
:1008B300BB010689828A83E0225002E722BBFE0243
:0908C300E32289828A83E4932276
:1008CC00BB010CE58229F582E5833AF583E02250E1
:1008DC0006E92582F8E622BBFE06E92582F8E2222B
:0D08EC00E58229F582E5833AF583E4932245
:1008F900EF8DF0A4A8F0CF8CF0A428CE8DF0A42E13
:02090900FE22CC
:10090B00BC000BBE0029EF8DF084FFADF022E4CCD0
:10091B00F875F008EF2FFFEE33FEEC33FCEE9DEC99
:10092B00984005FCEE9DFE0FD5F0E9E4CEFD22EDDF
:10093B00F8F5F0EE8420D21CFEADF075F008EF2F29
:10094B00FFED33FD4007985006D5F0F222C398FD1A
:05095B000FD5F0EA22B7
:00000001FF
